:020000040800F2
:10000000000002200940000859400008594000083B
:1000100059400008594000085940000800000000FD
:10002000000000000000000000000000594000082F
:100030005940000800000000594000082F34000813
:10004000594000085940000859400008594000082C
:1000500059400008594000087D3E0008833E0008D2
:10006000893E00088F3E0008953E00085940000870
:1000700059400008594000085940000859400008FC
:10008000594000085940000859400008000000008D
:100090000000000000000000000000009B3E00087F
:1000A00075130008ED1200088913000811130008E9
:1000B00025130008391300084D130008CD1000085F
:1000C000D9100008E5100008F11000085940000898
:1000D00059400008A53D0008BD3D00080000000093
:1000E000B13E0008594000085940000800000000D7
:1000F000000000000000000000000000594000085F
:100100000000000059400008611300085940000831
:1001100000000000000000000000000000000000DF
:10012000594000085940000859400008594000084B
:10013000594000080000000000000000000000001E
:10014000000000000000000000000000594000080E
:10015000594000085940000859400008D93D00089E
:10016000FD10000809110008000000000000000058
:10017000000000000000000000000000000000007F
:1001800000000000594000080000000000000000CE
:08019000594000085940000825
:10019800034613F8012B002AFBD1181A01387047BF
:1001A80053B94AB9002908BF00281CBF4FF0FF31D6
:1001B8004FF0FF3000F00CB8ADF1080C6DE904CE3B
:1001C80004F080FDDDF804E0DDE9022304B07047A7
:1001D800704700BF10B5054C237833B9044B13B1F1
:1001E8000448AFF300800123237010BD3C010020B8
:1001F80000000000A44F000808B5034B1BB10349D9
:100208000348AFF3008008BD000000004001002053
:10021800A44F0008C0F30313052B98BF074A00F04A
:100228000F0098BF52F82320054B88BF002253F8CF
:10023800203009B1936170471B04FBE7B40000202C
:100248009852000810B5084C01444FF6FF728842D6
:1002580008D010F8013B5340DBB234F8133083EA7E
:100268001222F4E7104610BD6A500008C3B2232BCF
:100278002DE9F0410D462AD8274A52F8234000F4C8
:10028800E0600443621C44D0244EC4F3031704F016
:100298000F0856F8273023FA08F3DB0710D5204952
:1002A800204603F034F910B1204603F09DFD0123E8
:1002B80003FA08F256F8273023EA020346F82730F3
:1002C800052D15D8DFE805F015211B1D1F2300F0AB
:1002D800C002C02A1DD1C92B1BD8124B00F03F0207
:1002E80000F4E06053F822200B4B53F82240C8E793
:1002F800FEE700212046BDE8F04103F017B91021C0
:10030800F8E72021F6E70321F4E70121F2E70921C4
:10031800F0E7BDE8F08100BF30560008180600205D
:100328007453000808560008C3B2232B07D80E4A96
:1003380052F8233000F4E0601843FFF76BBF00F079
:10034800C002C02A0CD1C92B0AD8084B00F03F02C2
:1003580000F4E06053F82220034B53F82230EBE717
:100368004FF0FF30E9E700BF305600080856000894
:1003780038B51249124C1348002203F0BBFF002283
:100388001149124803F0B6FF2046002520F8045B07
:100398000F4904F0B5F90F4B25741A68C4F81A20F0
:1003A8005A68C4F81E209A68C4F82220DA68658260
:1003B8002575E5822583C4F8262038BD0010014044
:1003C8009C03002088020020004400405C010020BB
:1003D800FE560008BC4F0008014804F04CB900BFA5
:1003E800A003002038B51748174C00F065FBC0B2D1
:1003F800772820700CD1134800F05EFB05461148A1
:1004080000F05AFB114B03EA05231843104B1880E0
:100418002378782B04D10B4800F04EFB0C4B188046
:100428002378792B04D1074800F046FB084B188045
:100438002378802B04D1034800F03EFB044B18803E
:1004480038BD00BFD00300207C02002000FFFF0061
:100458005A01002038B5094CC1B20546204600F0C3
:10046800ACFB204600F0F2FB290A204600F0A5FB71
:100478002046BDE8384000F0E9BB00BFD0030020AB
:1004880010B5054C0146204600F097FB2046BDE814
:10049800104000F0DBBB00BFD003002010B5244B98
:1004A8001B78713B0F2B14D8DFE803F0080D141AE2
:1004B8001D20232B351313131313133B7120BDE891
:1004C8001040FFF7DDBF7220FFF7DAFF194B01225A
:1004D8001A7010BD184B1888BDE81040FFF7BABF56
:1004E800154B1879EBE7144B9879E8E7124B188904
:1004F800F2E7124C104B22885A807720FFF7C0FF92
:1005080006E00E4C0C4B22885A717820FFF7A2FFA8
:1005180000232380DDE7094C074B2288DA71792014
:10052800ECE7064C044B22889A728020E6E700BF6D
:100538007C02002058010020700200205A0100208F
:100548002DE9F8433948DFF80481394D06224FF484
:10055800E13103F025FF374806224FF4E13103F07B
:100568001FFF0A22D8F80010304804F038F801219B
:100578001F20FFF77BFE0121C420FFF777FE2E4BDB
:100588001B69002155F82300FFF744FE00F08CFF9B
:10059800012107461F20FFF7C7FE00F085FF002650
:1005A800044643F6972900F07FFFC01B48450FD843
:1005B80000F07AFF001BB0F5FA7FF4D986F0010647
:1005C80031461F20FFF7B0FE00F06EFF0446EAE751
:1005D800184803F059FD30B1164803F023FFC1B2A3
:1005E800124803F081FF00211F20FFF79DFE1348EA
:1005F8006B6EC0F884302B6EC0F888300A460B4604
:10060800752100F0D7FB0E490C4800F087FA0D4918
:100618000A4800F086FA0C4BD8F80010034801226B
:100628005A73BDE8F8430A2203F0D9BF5C010020E1
:10063800305600088802002008560008D003002021
:10064800ED030008A504000800000020D4000020E5
:10065800F8B50C4E0C4D33690C4F0446012155F882
:100668002300FFF7D7FD2146384603F053FD3846EF
:1006780003F01CFE3369002155F82300BDE8F8405B
:10068800FFF7C8BD08560008305600088802002049
:1006980070B50446451EC61D15F8010FFFF7D8FFB3
:1006A800B542F9D108212046FFF7CCFDC0F3072059
:1006B800FFF7CEFF20460821FFF7C4FDBDE87040D4
:1006C800C0B2FFF7C5BF00002DE9F041944C237B71
:1006D8000BB3012B79D0237A002B00F01681E37A33
:1006E800022B00F0C480102B00F01181012B40F088
:1006F800CF8000F0D9FE236DC01AB0F5FA7F40F222
:10070800C7800223874988486373E37203F002FFB6
:1007180000232372BCE0854803F0B6FC0028DAD039
:10072800824803F0B9FC1A2805D10123237300F08D
:10073800BBFEE064CFE77E4D7E4B6A8A1A802A7C36
:100748001A712A7D9A717948EA8A1A8103F0A4FC01
:10075800682807D17849281D03F0E5FF734803F09E
:1007680061FEB8E7714803F097FC702804D1281D92
:1007780004F00FF82874EDE76C4803F08DFC6C2842
:1007880004D1281D04F005F86882E3E7674803F000
:1007980083FC732807D1281D03F0FBFF003818BF1E
:1007A80001202875D6E7614803F076FC2E2804D18D
:1007B800281D03F0EEFFE882CCE75C4803F032FE28
:1007C800C1B2281D03F0D8FF85E700F06DFEE36C89
:1007D800C01A0A287FF67FAFE37A132B23D0574E2F
:1007E80052480822314603F019FF08213046FFF726
:1007F80029FDE37A112B054601D1F378A3724B4802
:1008080003F010FE0646494803F00CFE40EA0623B2
:100818009BB25B1B58425841207200F045FE0023F2
:100828002065237357E741483F4DDFF838812A2276
:1008380004F1220103F0F2FE04F122072A2617F838
:10084800011B1022284603F0BEFE013E4146284601
:1008580003F046FE16F0FF06F1D1334803F048FED8
:1008680037482A21FFF7EEFCE6720546C7E7304B0A
:1008780034492D48012200255A70E57203F04AFEDA
:1008880000F012FE2572606000F00EFE2E4B18601C
:100898002A4D6B78202B07D12C49234803F03AFEC8
:1008A80025236373002323726B78252B05D12849F0
:1008B8001D4803F02FFE002323726B78302B07D1DD
:1008C8002449194803F026FE352363730023237255
:1008D8006B78352B05D12049134803F01BFE002304
:1008E80023726B78502B07D11C490F4803F012FE76
:1008F80060236373002323726B78602B05D118493A
:10090800094803F007FE00232372BDE8F0810123A4
:10091800637200F0C9FD00232065E372F9E600BFA9
:1009280000000020CE4F00085C0100208802002053
:100938009C03002070020020FE5600087D02002063
:1009480022000020E04F0008CC030020F24F0008EE
:1009580002500008135000082950000840500008B1
:1009680050500008CC4F00082DE9F041434C444E4C
:10097800FFF7AAFE637823B3DFF82C8100F094FD1B
:10098800D8F80030C01A46281BD93E4F3B78042BB4
:100998001ED100233B703C4C637922799A4209D0DE
:1009A8003A4886F88730FFF773FE61790A2238489B
:1009B80003F00BFE3B7801333B7000F075FDC8F87F
:1009C8000000747B012C4ED0022C53D0BDE8F0817E
:1009D800032BEFD801A252F823F000BF9F090008AB
:1009E800F50900080F0A0008650A0008264DEB798A
:1009F800AA799A42DED0274884F82530FFF748FEC6
:100A0800A9790A22D3E7204D6B882988A3F10A0225
:100A180091421FDA0A221E4803F0BEFD6B88A3F13B
:100A2800FB0292B240F219418A420BD81A0A627745
:100A38001948A377FFF72CFE698815480A2203F0A6
:100A4800ABFDB7E700236377FA231348A377FFF7D3
:100A58001FFEAFE70A339942ACDDDBE70F490C48CC
:100A680003F058FDA6E70E48FFF712FEF4720023C4
:100A78007373ABE70B48FFF70BFEF8E79C03002006
:100A880000000020C803002070020020840000201D
:100A98005C010020BE030020B6030020615000085E
:100AA800540000205C000020CC0300200020704788
:100AB800028BC08A101A7047C38A028B9A4285BF7C
:100AC8000269D25C4FF0FF32013388BFC3821046FF
:100AD8007047028BC38A9A4286BF0269D05C4FF086
:100AE800FF307047826DD2F8C43013B100215184B1
:100AF8001847704700214FF47A72C0E90112054A7D
:100B08000260054AD16DC0F88410926DC0F8882043
:100B1800704700BF7452000830560008C0F8C8106B
:100B28007047C0F8C410704738B5838A8B420546B1
:100B380009D2202938BF202100690C4603F080FF24
:100B480010B12861AC8238BDFEE770B5846D866E41
:100B5800D4F8C8300546B3B1E28A238B9A4212D33F
:100B680031462046FFF7E0FF2069324605F174015F
:100B780003F070FE0023E3822683D4F8C8303046A1
:100B8800BDE87040184770BDB1F5806F70B5054677
:100B98000C4610D8038C8B420AD220290E4638BF47
:100BA8002026C069314603F04BFF18B1E8612E8456
:100BB800204670BDFEE70024FAE713B590F824300C
:100BC8008DF8071004467BB1418C0131FFF7DCFF3B
:100BD80040B1638CE2699DF80710D154638C0133EE
:100BE8006384012002B010BD01220DF107012830F5
:100BF80000F0D2F9B0FA80F04009F3E770B590F848
:100C0800243004460E46154683B1418C1144FFF743
:100C1800BBFF88B1638CE0692A461844314603F06B
:100C280019FE638C2B446384284670BD92B2283029
:100C380000F0B2F90028F7D00025F5E7C36923B121
:100C4800028C0021184603F013BE7047002110B52E
:100C58000446C1820183006910B1A28A03F008FE2C
:100C6800002363842046FFF7E9FF10BD2DE9F84310
:100C78000446D0F8840003F0EDF90021FFF7F6FAF6
:100C8800D4F88430C3F30312052A43D8254D264EE1
:100C980055F8222003F00F03126956F823309343C6
:100CA8003ED0D4F8880003F0D5F90121FFF7DEFA29
:100CB8001E4BD4F888001E4A1B681E49B3FBF2F38A
:100CC8000A22C0F3031700F00F0C53431424052F16
:100CD80023D856F82C8055F827E04FEA0842CEF87A
:100CE8001820D1F804904A68A2EB09029342FADC72
:100CF800CEF81880D1F804E04A68A2EB0E029342BD
:100D0800FADC013CE3D103F0A5F92146BDE8F8433C
:100D1800FFF7ACBA00231B69FFDE00239B61FBE7EA
:100D2800BDE8F883B400002098520008D4000020E1
:100D380040420F00001000E037B50025C0E9045517
:100D4800C0E9075505838576C0F8C45080F824505B
:100D58004D0080F825504D1E69420446694180F8CF
:100D6800BE1080F8BF2080F8C030C0F88000FFF7C0
:100D78007DFF04F1280094F825300B4901904FF4C9
:100D8800804200F021F894F8BE3001984BB9074929
:100D980000F023F90649019803B0BDE8304000F09F
:100DA80015B903B030BD00BFA0860100ED0A0008E8
:100DB800530B0008C9B2FFF7BFBF00000148FFF797
:100DC80099BE00BFD00300202DE9F0430D4685B041
:100DD80016461F460446002800F0C6806449C06DC8
:100DE80002F042FC63498046206E02F03DFC014659
:100DF800B8F1000F00F0B880002800F0B580404638
:100E080002F049FC2060002800F0AE805A4B98425E
:100E180004F104084FF0000366D10193574B1A6C94
:100E280042F400121A641A6C02F400120192019A38
:100E38001A6A42F400121A621A6A22F400121A623A
:100E480042F21F03A4F864304D4BC3F800804949AF
:100E5800206E02F0F1FBE06D454902F0EDFB4948D8
:100E680023686360854206D94748854203D94748C5
:100E7800854288BF002094F897304249A0604FF01F
:100E880000098D428CBF4FF480454D464B450CBF41
:100E98004B464023236294F8983094F96400C4F8D0
:100EA8001C904B450CBF4B46802363624A46022187
:100EB800C4E90357C4E9056984F8419000F00CFBC4
:100EC80094F9640000F03AFB94F965004A4602215F
:100ED80000F002FB94F9650000F030FB404600F09A
:100EE800F1FB00283CD0FEE7294A90421AD1029330
:100EF800224B1A6C42F480021A641A6C02F48002C3
:100F08000292029A1A6A42F480021A621A6A22F457
:100F180080021A6242F22123A4F86430184BC3F805
:100F2800048094E71B4A904291D10393134B1A6CA7
:100F380042F400021A641A6C02F400020392039A43
:100F48001A6A42F400021A621A6A22F400021A6249
:100F580044F64813A4F86430094BC3F8088076E7D0
:100F68000223A06684F8953005B0BDE8F08300BF81
:100F78002C530008F052000800540040003802408A
:100F88009C040020A0860100801A060040420F0041
:100F980000580040005C0040202A30B514D80023D7
:100FA8009CB2A24207D890F894301A44D2B280F882
:100FB8009420002030BD90F89440CD5C1C4404443B
:100FC800013384F87450EBE70120F3E720B119B13D
:100FD800C166043000F094BC704720B119B10167B4
:100FE800043000F08DBC704773B504460D4694F884
:100FF8009130012B1646A0F104000AD1636E43B16B
:10100800A36E01909847022384F891300198002339
:101018006366E3689E4221D18DB9E36E84F89150EE
:1010280013B184F89050984794F89020202304F145
:101038007001204602B0BDE8704000F0EBBB002311
:101048000122636684F89120656E74354119042382
:10105800204602B0BDE8704000F017BC02B070BD79
:1010680010B590F89130012B044604D1436E13B1AA
:10107800836E04389847022384F89130002363660E
:101088002046BDE8104000F03BBC436E1F2BDEBF7E
:10109800436E0133436690F89130012BDAB205D1E3
:1010A800416E01440423703100F0EFBB7047002308
:1010B80080F89030704790F892300BB900F020BC5F
:1010C80070470000014B186800F094BD9C04002094
:1010D800014B186801F0C2B99C040020014B586804
:1010E80000F088BD9C040020014B586801F0B6B997
:1010F8009C040020014B986800F07CBD9C040020F3
:10110800014B986801F0AAB99C04002010B50A4C5C
:1011180022681318EFF308818B4206D9074B0C227B
:101128001A604FF0FF32104610BD05490548091AEC
:101138008B42F3D22360F6E7A80000204C0700207A
:101148000000022000040000FEE70000024B162207
:101158001A604FF0FF3070474C070020012070479D
:10116800836810B504462BB1032201469847002333
:10117800C4E9023310BD836810B5044613B10322D5
:1011880001469847204610BD164A904203461BD098
:10119800B0F1804F1AD0A2F57C42904218D002F5E7
:1011A8008062904216D002F58062904214D04FF6C9
:1011B800FF700D4A934211D00C4A934210D00C4A4A
:1011C800934208BF072070470020F2E70120F0E7AC
:1011D8000220F1E70320F2E704207047052070475A
:1011E80006207047000001400040014000440140D3
:1011F80000480140014670B5044651F8100FFFF74A
:10120800C3FF0546084602F009FB094A002342F8D5
:10121800253004F16006E36004F1B005B54204D05E
:10122800103D2846FFF7A7FFF8E7204670BD00BF2E
:10123800A8040020F8B504460846FFF7A5FF4FF6B6
:10124800FF73984200D1FEE7236903B1FEE71C4D06
:1012580084F82C3004F10C0245F8202004F1100623
:101268000E22C4E90C33C4E90E33C4E91033C4E9CF
:1012780016232161A36484F84C3084F84D30E4606F
:10128800304602F03BFA04F1600504F1B007284645
:101298001035FFF765FFBD42F9D100234FF6FF7205
:1012A800C4E90033C4E90632C4E90833A3606361C2
:1012B8008023A3623046BDE8F84001F0F5BC00BFCA
:1012C800A804002010B50023044683668367C0F88D
:1012D8008830C0F89830C0F8A8300361FFF7AAFF3B
:1012E800204610BD10B5074C206810B1043001F03D
:1012F800EBFBA06920B1BDE81040043001F0E4BB6D
:1013080010BD00BFA8040020034B186810B10430BA
:1013180001F0DABB704700BFA8040020034B5868EF
:1013280010B1043001F0D0BB704700BFA804002002
:10133800034B986810B1043001F0C6BB704700BF7A
:10134800A8040020034BD86810B1043001F0BCBBDE
:10135800704700BFA8040020034B186910B104307F
:1013680001F0B2BB704700BFA8040020034B5869C6
:1013780010B1043001F0A8BB704700BFA8040020DA
:10138800034BD86910B1043001F09EBB704700BF11
:10139800A8040020826810B50AB903F0FBFDBDE877
:1013A8001040C368184708B500B9FEE702F0A4F971
:1013B8000068836E13B16030FFF7ECFF08BDFFF7DC
:1013C800F2BF10B500B9FEE7037F013B072B10D829
:1013D800DFE803F014040F100F0F0F12022402F0BD
:1013E8008BF90068063400EB041083680BB1FFF733
:1013F800D1FF10BD0324F2E70424F0E70124EEE74F
:10140800FFF7DFBFFFF7DDBF03F014BA03F01ABA26
:101418007047000038B50E4A0E4B054618784FF451
:101428007A73B3FBF0F31068B0FBF3F000F0A8F8A0
:10143800044658B90F2D09D8024629464FF0FF3007
:1014480000F04AF8044B20461D6038BD0120FCE737
:10145800D4000020AC000020B000002008B50B4BE1
:101468001A6842F400721A601A6842F480621A60BC
:101478001A6842F480721A60032000F01BF80020FA
:10148800FFF7C8FFFFF7C4FF002008BD003C02407B
:10149800034A044B11681B780B441360704700BF64
:1014A800C8040020AC000020014B1868704700BF3A
:1014B800C80400200749CA6822F4E0620302120443
:1014C80003F4E063120C134343F0BF6343F40033A7
:1014D800CB60704700ED00E0164B30B5DC68C4F314
:1014E8000224C4F10705231D042D28BF0425062B5B
:1014F8004FF0FF338CBF033C002403FA05F521EAC3
:101508000501A34022EA0302A140002841EA0203A0
:10151800ACBF00F16040084A4FEA0313B8BF00F0BF
:101528000F00DBB2AABF00F56140135480F8003306
:1015380030BD00BF00ED00E014ED00E0002808DB3E
:101548000123420900F01F0003FA00F0014B43F8A1
:101558002200704700E100E000280DDB430901226A
:1015680000F01F0002FA00F02033044A42F823007A
:10157800BFF34F8FBFF36F8F704700BF00E100E0EC
:101588000138B0F1807F0BD24FF0E023054A586153
:10159800F02182F823100020072298611A61704711
:1015A8000120704700ED00E0002809DB4309012213
:1015B80000F01F0002FA00F06033024A42F82300EC
:1015C800704700BF00E100E0704708B5FFF7FCFF77
:1015D80008BD704710B5044650B1437903F0FF02C7
:1015E80013B90271FFF7F5FF01236371002010BDE5
:1015F8000120FCE770B50446866DFFF755FF94F8A7
:101608003530022B054606D080236365002384F815
:101618003430012070BD23681A6822F016021A605F
:101628005A6922F080025A61226C0AB9A26C1AB176
:101638001A6822F008021A601A6822F001021A6079
:1016480023681B6813F001030AD1E16D3F228A4029
:10165800B260012284F8352084F834301846D9E77E
:10166800FFF722FF401B0528EAD9202363650320E2
:10167800002384F8350084F83430CBE790F835300F
:10168800022B03D08023436501207047026805239D
:1016980080F83530136823F0010313600020704789
:1016A80090F8350070470000044A5169014208B5B6
:1016B80002D0506102F0C8FB08BD00BF003C0140E9
:1016C8007047000070B5044608B9012070BD90F855
:1016D8003D3003F0FF021BB980F83C20FFF7F0FF14
:1016E800242384F83D3023681A6822F001021A6026
:1016F8001A6842F400421A601A6822F400421A601A
:1017080001F0C0F93F4B65689D4294BF3E4B3F4B8B
:1017180098428CBF00230123002BD6D12268394E72
:1017280053683B49B0FBF1F123F03F030B43B5424B
:10173800536088BF4FF49676136A88BF714323F0CD
:101748003F0384BF4FF47A76B1FBF6F101311943B8
:101758001162D169431E2B4821F44F41854221F083
:10176800FF0132D86D0040F6FC70B3FBF5F301338E
:10177800034242D0C3F30B030B43D361D4E90730D0
:101788001168034321F0C0010B4313609168D4E949
:10179800030321F40341034321F0FF010B4393604A
:1017A800D4E90530D168034321F0FF010B43D3602E
:1017B800136843F00103136000202023206484F899
:1017C8003D30206384F83E0080E7A06850B905EBFF
:1017D8004505B3FBF5F30133C3F30B037BB143F4C6
:1017E8000043C9E719204543B3FBF5F30133C3F3BD
:1017F8000B0323B143F44043BEE70423BCE70123B2
:10180800BAE700BFA08601007F841E00FF083D00E4
:1018180040420F0037B590F83D4004F02804282CCA
:1018280031D100292DD0002A2BD090F83C40012C32
:1018380029D005682C68E4075EBF2C6844F00104D1
:101848002C602C6824F400642C60292480F83D4026
:10185800202480F83E40002404644285428DC362FF
:1018680001946B690193AB69019380F83C40019B3B
:101878006B68416243F4E06302856B60204603B005
:1018880030BD0120FBE70220F9E737B590F83D406D
:1018980004F02804282C31D100292DD0002A2BD07F
:1018A80090F83C40012C29D005682C68E4075EBFFD
:1018B8002C6844F001042C602C6824F400642C602B
:1018C8002A2480F83D40202480F83E400024046407
:1018D8004285428DC36201946B690193AB690193A0
:1018E80080F83C40019B6B68416243F4E0630285E9
:1018F8006B60204603B030BD0120FBE70220F9E70A
:1019080090F83D30202B14D1282380F83D3003680F
:101918001A68D2075EBF1A6842F001021A601A6894
:1019280042F480621A605A6842F440725A60002099
:1019380070470220704770477047704790F83D2005
:1019480008B5036DD2B283B9C36C0268012B836CEE
:1019580005D1DBB21361036D0233036508BDC3F320
:1019680007231361036D0133F7E7036D012B03D1DF
:10197800836C0268DBB2F4E7036D022BEED1222AF6
:1019880005D10268136843F480731360EAE7438D56
:101998009BB263B1212A0AD1436A026813F8011B7A
:1019A80011614362438D013B9BB24385D6E7438D6A
:1019B8009BB2002BD2D1212AD0D10268516821F4E0
:1019C800E0615160116841F40071116020220363E5
:1019D80080F83D2080F83E30FFF7AFFFBEE7704744
:1019E8007047000037B5002301932D4B806B1B68AF
:1019F80090F83D2046F2A811B3FBF1F323214B43A5
:101A080001930368D2B2019941BB016C41F02001F6
:101A18000164446B0CB10021E163816B09B10025BD
:101A2800CD631D6825F480651D600025458504B1DA
:101A3800256501B10D65196821F00101196090F85B
:101A48003D10602911D1202380F83D30002380F813
:101A58003E300364FFF7C4FF03B030BD019901397C
:101A6800019119688905CED4D3E702F02802282A03
:101A78000ED1196841F001011960196841F48061BB
:101A880019600023036380F83D20FFF714FBE3E7A8
:101A9800202380F83D30002380F83E30F5E700BF72
:101AA800D400002010B590F83D2090F83E30102B5F
:101AB800D9B204460368D2B201D0402913D1222AF0
:101AC80011D1196821F400611960596811F4006195
:101AD80006D1602A1EBF202284F83D2084F83E10DB
:101AE8000022226307E002F028012829EDD1002214
:101AF800226384F83D105A6812F400624FD05A6885
:101B0800606B22F400625A6090F83530012B374B35
:101B18002BD00365FFF7B2FD50B12268606B1368E4
:101B280023F001031360202384F83D30036D9847A8
:101B3800236C19071FBF2268536823F4E0635360BE
:101B480094F83D30226C5207DBB20DD5282B0BD10F
:101B5800274BE362202200232363204684F83D209C
:101B680084F83E30FFF77CFA10BDA06B0365FFF7E1
:101B780085FD0028DCD023685A69510605D51A6905
:101B8800636A1A70636A013363622268A06B136820
:101B980023F001031360202384F83D30C6E794F84E
:101BA8003D10602915D1202184F83D1022645A691E
:101BB800520605D51A69636A1A70636A013363624B
:101BC8002268136823F0010313602046FFF708FF1B
:101BD800AEE75A69500605D51A69636A1A70636ACE
:101BE800013363622046FFF766FAA1E7ED190008A2
:101BF8000000FFFFF0B5036804465A68C66A90F80B
:101C08003E0094F83D1010288FB0C5B2C9B202D07A
:101C1800402D40F0C0829F69586910F0010F07D12C
:101C2800B6F52A0F02D0B6F12A4F51D10FB0F0BD48
:101C380096054DD5E26AB2F52A0F0CD10122E2626F
:101C480094F83E20402A11D1226D52B9626C02F0FC
:101C5800FE021A61EAE7E26AB2F12A4FF0D10822DD
:101C6800EDE7626C42F00102D2B2F2E72269B2F506
:101C7800804F1AD194F83D20212A626C11D102F0CC
:101C8800FE021A61626B0AB1D26B2AB9A26B002AF2
:101C9800CCD0D26B002AC9D05A6842F400625A608C
:101CA800C4E742F00102D2B2EBE7226D32B9626CAE
:101CB800D21102F0060242F0F002CAE7226D012AB0
:101CC800B4D1626CD21102F0060242F0F102C0E710
:101CD800060703D5960501D5626CE4E7860740F14F
:101CE800DD80960540F1DA8094F83E10E26A256BB3
:101CF80094F83D002228C9B240F0C880206D40B950
:101D0800402906D101905A6901929B690193019B70
:101D18008CE7216D89B92069B0F5404F0DD102914A
:101D28005A6902929A690292029A1A6842F4807277
:101D38001A60236D0133236578E7618D89B251B943
:101D480003915A6903929A690392039A1A6842F4B2
:101D580000721A6019E0618D89B2012949D112F522
:101D6800803F1BD11A6822F480621A605A6812F404
:101D780000620CD01A6822F480621A600022049271
:101D88005A6904929B690493049B0023D3E7059244
:101D98005A6905929A690592059AD7E7082A1CD0CC
:101DA800202A1AD0122D0DD1012A16D11A6822F430
:101DB80080621A60002206925A6906929B6906930D
:101DC800069BE2E7102AF1D8914921FA02F2D707D7
:101DD800ECD51A6842F48062EBE71A6822F4806254
:101DE8001A60002207925A6907929A690792079A1D
:101DF800ACE7618D89B202292AD1102A03D8844917
:101E0800D140CE0720D4196821F48061196019687F
:101E180041F40061196059680D050DD512F5803F30
:101E280006D0511E1F2907D87A4ACA40D00703D5C1
:101E38005A6842F480525A60002208925A690892FD
:101E48009B690893089BA0E7196841F48061E1E762
:101E5800196841F480611960596809050ED512F5B1
:101E6800803F07D0013A1F2A08D86A4921FA02F2AE
:101E7800D20703D55A6842F480525A600022099268
:101E88005A6909929B690993099B7EE700220A9285
:101E98005A690A929B690A930A9BC7E67F0740F131
:101EA8008D805E6836053FF5C1AE0706C0F3800633
:101EB8003ED550053CD5002E3DD194F83D20258DCA
:101EC80094F83E10E06AD2B2C9B2C5B9212A18D135
:101ED800082858D0202856D010F5803F53D05A688B
:101EE80022F4E0625A6011232363002384F83E3011
:101EF800202384F83D302046FFF71DFD96E6212A71
:101F080005D040297FF492AE222A7FF48FAE628DED
:101F180092B21AB95A6822F48062C0E694F83E2058
:101F2800402A16D120460FB0BDE8F040FFF706BDA5
:101F3800002E3FF47BAE97057FF578AE212939D185
:101F4800E16A94F83D20212A7FF470AE628D92B246
:101F58004AB1626A12F8011B19616262638D013B22
:101F68009BB2638562E608290DD020290BD011F5B4
:101F7800803F08D0596821F4E06159601123236338
:101F880084F83E20B4E75A6822F4E0625A601A687E
:101F980042F400721A6000232022236384F83D2053
:101FA80094F83E2084F83E30402A2046A4D1FFF71A
:101FB800C4FC3BE6402D7FF439AEB3E759680E0503
:101FC8003FF534AE4506C0F380017AD5500578D583
:101FD800002979D194F83D20222A7FF427AE628D1A
:101FE80092B2032A18D91A69636A1A70636A0133AC
:101FF8006362638D013B9BB26385638D9BB2032B48
:102008007FF414AE2268536823F4806353600DE6AE
:102018001400010081800080E06A02283FF47AAF52
:10202800012A3FF677AF754A0B91126846F2A8115C
:10203800B2FBF1F202EB82020B920B9A013A0B927D
:102048000B99D1B9226C42F0200222645A6822F41A
:10205800E0625A601A69636A1A70636A01336362DC
:10206800638D013B9BB26385202384F83D30204675
:1020780084F83E10FFF71FF8D8E51A6812F40072CA
:10208800DBD1196821F480611960596821F4E06195
:1020980059601969636A1970636A01336362638DF1
:1020A800013B9BB26385202384F83D3094F83E3091
:1020B80084F83E20402B68D122632046FFF78FFC2E
:1020C800B4E500293FF4B2AD92057FF5AFADE26A01
:1020D800608D616A80B2042809D15A6822F480624E
:1020E8005A601B690B70636A0133636236E7608D5F
:1020F80080B203280CD15868042A20F48060586004
:10210800EFD0022AEDD01A6822F480621A60E8E75C
:10211800608D80B20228E4D1012A01D0102A28D18A
:102128001A6822F480621A601B690B70626A531C79
:102138006362638D013B9BB2638523681B6953709F
:10214800636A226801336362638D013B9BB26385D6
:10215800536823F440735360202384F83D3094F887
:102168003E30402B4FF0000384F83E300DD12363FE
:10217800A3E7042A01D0022A03D11A6842F4806234
:10218800D1E71A6842F40072CDE712232363204690
:10219800FFF7D2FB4AE5206C10B358690025870782
:1021A8002ED596052CD5226C02B19D6994F83D2058
:1021B80002F02802282A16D15A6822F480625A604E
:1021C8002F066FEA95014FF0000354BFA289228BB6
:1021D80084F83C3001F001012046FEF705FF25E5B3
:1021E8009D695869DBE700220C9259690C919B693B
:1021F8000C930C9B84F83C2018E500BFD400002009
:10220800C60640F1B180950540F1AE8094F83D5086
:102218005A6822F4E0625A6000220D925A690D92BF
:102228001A6842F001021A600D9A1A6822F4806254
:102238001A605A681005EDB220D505F0F702222A77
:102248004AD1A06B0268526892B26285628D92B2DE
:102258001AB1226C42F0040222645A6822F4006225
:102268005A60FFF71DFA012808D0A06B794B036567
:10227800FFF704FA10B1A06B036D9847638D9BB20A
:1022880013B323685A69510709D51A69636A1A7022
:10229800636A01336362638D013B9BB26385236884
:1022A8005A69520609D51A69636A1A70636A013352
:1022B8006362638D013B9BB26385638D9BB21BB1E7
:1022C800236C43F004032364236C13B320460FB03C
:1022D800BDE8F040FFF7E6BB606B0268526892B257
:1022E8006285628D92B21AB1226C42F004022264B5
:1022F8005A6822F400625A60FFF7D2F90128BDD06B
:10230800606B544B0365FFF7B9F90028B6D0606BD2
:10231800B2E72A2D06D12363282384F83D302046CE
:10232800FEF7B3FE94F83D30282B0CD14A4BE362FC
:10233800202200232363204684F83D2084F83E3081
:10234800FEF78EFE72E4236B222B02D0222D7FF43F
:102358006DAC00232022236384F83D2084F83E30AE
:102368002046FEF792FE61E401F0F7012129C0F34F
:10237800800535D1070627D5560525D53DBB94F8E8
:102388003D00628D92B2C0B2002A3FF44FAC626A3F
:1023980012F8015B1D616262628D013A92B2628538
:1023A800628D92B2002A7FF441AC29287FF43EACBA
:1023B8005A6822F480625A6028232163204684F8F0
:1023C8003D30FEF774FE31E4002D3FF42FAC950547
:1023D8007FF52CAC628D92B2002A3FF427ACB8E5A9
:1023E800400627D5510525D53DBB94F83D20618D84
:1023F80089B2D2B200293FF419AC1969636A19701D
:10240800636A01336362638D013B9BB26385638DAD
:102418009BB2002B7FF40AAC2A2A7FF407AC22680F
:10242800536823F48063536022232363282384F8AA
:102438003D3095E7002D3FF4F9AB92057FF5F6ABFB
:10244800628D92B2002A3FF4F1AB1A69636A1A707E
:1024580049E600BFED1900080000FFFFF8B5036862
:102468005F695E6890F83E200446F805D2B2C7F36B
:10247800002508D5F10548BF6FF48071C6F3002523
:1024880044BF59610125B80506D5F10542BF6FF46F
:10249800007145F002055961780536D5F10534D546
:1024A800608D94F83D10D4F830C0202A80B2C9B2AB
:1024B8005BD1002859D101F0F700212804D0282940
:1024C80053D1BCF1210F50D194F83D20E16A08297D
:1024D800D2B201D020292AD1282A28D12B4AE26257
:1024E8005A6822F4E0625A606FF480625A611A688E
:1024F80022F480621A60002320222363204684F895
:102508003D2084F83E30FEF7ABFD3A053BD5F30598
:1025180039D523686FF4006245F008055A61236CC9
:102528001D4325642046BDE8F840FFF7BBBA212AC1
:1025380017D11649E1622263202284F83D20002247
:1025480084F83E205A6822F4E0625A606FF4806290
:102558005A611A6822F480621A602046FEF7A7FDC5
:10256800D3E76FF480625A61CFE76FF48061102A75
:10257800596145F0040501D0402AC6D11A6842F4D1
:1025880000721A60C1E7002DC9D1F8BD0000FFFF35
:102598002DE9F341044640B30368DD0710D42368EE
:1025A80098075ED423681A0700F1A08023685B07A8
:1025B80000F1C080A069002840F0288100202BE0AD
:1025C8008F4B9A6802F00C02042A07D09A6802F02E
:1025D8000C02082A0BD15A68510208D5884B1B688F
:1025E8009A03DCD56368002BD9D1012014E0626816
:1025F800B2F5803F13D11A6842F480321A60FEF7B0
:1026080053FF7F4E054633689B03C8D4FEF74CFF43
:10261800401B6428F7D9032002B0BDE8F081784D4B
:10262800B2F5A02F2B6807D143F480232B602B68C9
:1026380043F480332B60E2E723F480332B602B686C
:1026480023F480232B60002AD9D1FEF72DFF0646FC
:102658002B689F03A3D5FEF727FF801B6428F7D9B3
:10266800D9E7674B9A6812F00C0F07D09A6802F006
:102678000C02082A11D15B685E020ED4604A136806
:102688009D0702D5E368012BAFD11368216923F0B8
:10269800F80343EAC103136084E7E268594BB2B117
:1026A80001221A60FEF700FF554D06462B68980771
:1026B80007D52B68226923F0F80343EAC2032B608D
:1026C80070E7FEF7F1FE801B0228EFD9A3E71A6036
:1026D800FEF7EAFE4A4E0546336899077FF562AF72
:1026E800FEF7E2FE401B0228F6D994E76269454BE3
:1026F80082B10122C3F8802EFEF7D6FE404E054671
:10270800736F9F073FF552AFFEF7CEFE401B0228BE
:10271800F6D980E7C3F8802EFEF7C6FE384E054688
:10272800736F98077FF542AFFEF7BEFE401B022885
:10273800F6D970E7324B1A6C12F0805228D1019208
:102748001A6C42F080521A641B6C03F08053019398
:10275800019B01272C4D2B68D9051BD5A368284D53
:10276800012B27D12B6F43F001032B67FEF79CFE4B
:10277800234E054641F28838336F9B0739D5002F21
:102788003FF418AF1E4A136C23F08053136411E70B
:102798000027DFE72B6843F480732B60FEF784FE85
:1027A80006462B68DA05D9D4FEF77EFE801B022880
:1027B800F7D930E7052B04D12B6F43F004032B67BF
:1027C800D0E72A6F22F001022A672A6F22F004025A
:1027D8002A67002BCAD1FEF767FE41F28838064601
:1027E8002B6F9807CBD5FEF75FFE801B4045F7D9C6
:1027F80011E7FEF759FE401B4045BDD90BE700BF66
:10280800003802400000474200700040364DAB6877
:1028180003F00C03082B3DD0344B002202281A6623
:102828002BD1FEF741FE06462B6899011FD4D4E947
:1028380007321343626A43EA8213E26A43EA026395
:10284800A26A5208013A43EA02436B60274B264DBD
:1028580001221A66FEF728FE04462B689A013FF506
:10286800ADAEFEF721FE001B0228F6D9D3E6FEF72F
:102878001BFE801B0228D7D9CDE6FEF715FE0446BD
:102888002B689B017FF59AAEFEF70EFE001B02280F
:10289800F6D9C0E601283FF4BFAE6B68E26903F4DD
:1028A800800191427FF4A1AE216A03F03F028A427F
:1028B8007FF49BAE616A47F6C0721A40B2EB811F83
:1028C8007FF493AEA26A520803F44031013AB1EBA7
:1028D800024F7FF48AAEE26A03F07063B3EB026FD3
:1028E8003FF46CAE81E600BF00380240000047426A
:1028F800134908B58B6803F00C03042B1CD0082B74
:102908001CD14A684B68496813F4800314BF0D480A
:102918000D48C1F3881118BF002302F03F02A1FB44
:102928000001FDF73DFC064B5B68C3F3014301332F
:102938005B00B0FBF3F008BD0248FCE70248FAE789
:102948000038024040787D010024F4002DE9F04170
:102958000D46044610B90120BDE8F081444B1A68C1
:1029680002F007028A4228D3226897072DD4D0079D
:1029780041D43F4B1A6802F00702AA4266D822687F
:1029880051076CD4130707D53A4A2169936823F491
:10299800604343EAC1039360FFF7AAFF354B364A09
:1029A8009B68C3F30313D35CD840344B1860344B93
:1029B8001868FEF72FFD0020CEE7CAB21A701B6810
:1029C80003F007038B42C6D1CEE72A4B12F0040F5F
:1029D8001EBF996841F4E0519960160742BF996893
:1029E80041F4604199602349A0688B6823F0F003A3
:1029F80003438B60BBE762681E4B012A1CD11B682E
:102A080013F4003FA7D01B4EB36823F0030313430E
:102A1800B360FEF749FD41F288380746B36862683B
:102A280003F00C03B3EB820FA3D0FEF73DFDC01BF0
:102A38004045F3D903208FE7911E01291B6802D86E
:102A480013F0007FDEE713F0020FDBE7EAB21A703B
:102A58001B6803F00703AB427FF47DAF8FE705499E
:102A6800E0688B6823F4E05303438B608AE700BF78
:102A7800003C024000380240D8520008D400002030
:102A8800B0000020044B054A9B68C3F38223D35C43
:102A9800034A1068D840704700380240E8520008DE
:102AA800D4000020044B054A9B68C3F34233D35C2F
:102AB800034A1068D840704700380240E8520008BE
:102AC800D40000207047704703681A69910710B551
:102AD80004460ED5DA6892070BD56FF002021A6128
:102AE800012202779B699B0777D0FEF78BFC0023B6
:102AF800237723681A69500710D5DA6851070DD56E
:102B08006FF004021A61022222779B6913F4407F56
:102B1800204668D0FEF776FC0023237723681A69DD
:102B280012070FD5DA6810070CD56FF008021A6182
:102B380004222277DB69990720465AD0FEF762FC07
:102B48000023237723681A69D20610D5DA68D006DD
:102B58000DD56FF010021A6108222277DB6913F491
:102B6800407F20464BD0FEF74DFC00232377236897
:102B78001A69D10708D5DA68D20705D56FF00102BE
:102B88001A612046FEF71BFC23681A69100608D54F
:102B9800DA68110605D56FF080021A61204600F048
:102BA800B0F823681A69520608D5DA68500605D5C0
:102BB8006FF040021A612046FFF785FF23681A6903
:102BC800910622D5DA6892061FD56FF020022046BA
:102BD8001A61BDE8104000F093B8FEF711FC2046DA
:102BE800FFF770FF83E7FEF70BFC2046FFF76AFF4D
:102BF80092E7FEF705FC2046FFF764FFA0E7FEF723
:102C0800FFFB2046FFF75EFFAFE710BD244A0368CD
:102C180090420ED0B0F1804F0BD0A2F57C4290428A
:102C280007D002F58062904203D002F5806290429C
:102C380015D14A6823F070031343194A904219D0FA
:102C4800B0F1804F16D0A2F57C42904212D002F526
:102C5800806290420ED002F5806290420AD0114AFA
:102C6800904207D002F58062904203D002F580625C
:102C7800904203D1CA6823F4407313434A6923F08E
:102C88008003134303608B68C3620B688362044B41
:102C9800984204BF0B69036301234361704700BF77
:102CA800000001400040014010B5044630B390F8E0
:102CB8003D3003F0FF021BB980F83C2000F07AFE9B
:102CC8000223206884F83D30211DFFF79FFF012370
:102CD80084F84630002084F83E3084F83F3084F889
:102CE800403084F8413084F8423084F8433084F826
:102CF800443084F8453084F83D3010BD0120FCE7AD
:102D080070477047026802F10C0353E8003F23F450
:102D180090730C3242E8003102680029F2D102F1C6
:102D2800140353E8003F23F0010302F1140C4CE8AC
:102D380000310029F3D1036B012B0BD102F10C03F5
:102D480053E8003F23F0100302F10C0C4CE800316B
:102D58000029F3D1202380F83E3000230363704715
:102D68000268C168136923F440530B4370B51361BB
:102D7800054683680069D168034368690343E869C5
:102D880021F4164121F00C0103430B43D36053692E
:102D9800A96923F440730B4353611F4B9A4203D034
:102DA80003F580639A4223D1FFF77CFEEB69192172
:102DB800B3F5004FD5E90046A0FB01011BD1B219BC
:102DC8004FF000035B41FDF7EBF96421B0FBF1F52F
:102DD80001FB1503DB003233B3FBF1F303F0070209
:102DE8005B0002EB051203F4F8731344A36070BD93
:102DF800FFF748FEDAE7B200B30FFDF7D1F9642216
:102E0800B0FBF2F102FB11031B013233B3FBF2F307
:102E180003EB0113EAE700BF00100140704710B54B
:102E2800044640B390F83D3003F0FF021BB980F828
:102E38003C20FFF7F3FF2268242384F83D30D36851
:102E480023F40053D3602046FFF78AFF23681A69EA
:102E580022F490421A615A6922F02A025A61DA6809
:102E680042F40052DA6000202023206484F83D30C8
:102E780084F83E3010BD0120FCE710B5044660B36D
:102E880090F83D3003F0FF021BB980F83C20FFF7B3
:102E9800C5FF2268242384F83D30D36823F4005307
:102EA800D3602046FFF75CFF23681A6922F490423A
:102EB8001A615A6922F022025A615A6942F00802DC
:102EC8005A61DA6842F40052DA6000202023206454
:102ED80084F83D3084F83E3010BD0120FCE790F8BE
:102EE8003D30202B18D1A9B1A2B190F83C30012B6C
:102EF80012D0C28401628284016800232122036403
:102F080080F83C3080F83D20CA6842F08002CA60F0
:102F180018467047012070470220704708B5806B3B
:102F28000023C385C38400F0FBFE08BD704707B5C6
:102F38008168836A0268B1F5805F3ED10169002922
:102F48003ED15268C2F3080223F8022B8362C38D74
:102F5800013B9BB2C385002B2CD10268D16821F0BC
:102F68002001D160D16821F48071D160516921F0CC
:102F780001015161202280F83E20026B012A02687B
:102F880028D1036302F10C0353E8003F23F0100338
:102F980002F10C0C4CE800310029F3D11368DB0670
:102FA80005D501911368019353680193019B818DA5
:102FB800FFF7BCFF03B05DF804FB39B9016929B913
:102FC8005268D2B21A70836A0133BFE7526802F0BE
:102FD8007F02F7E700F09EFEECE70000036837B5D4
:102FE8001A68D9685D6912F00F0F04460CD195066E
:102FF80070D58D066ED590F83E30222B64D103B083
:10300800BDE83040FFF793BF05F0010001F490756B
:1030180005435FD0D50705D5CB0542BF236C43F0E8
:1030280001032364550704D518B1236C43F0020348
:103038002364930704D518B1236C43F00403236475
:10304800150707D501F0200303431EBF236C43F087
:1030580008032364236C002B36D0900608D58A0613
:1030680006D594F83E30222B02D12046FFF75FFFA9
:1030780023685B69256C03F0400305F008051D43D0
:10308800204623D0FFF73EFE226853695B0618D519
:1030980002F1140353E8003F23F0400302F1140047
:1030A80040E800310029F3D1A06B50B1724B0365A1
:1030B800FEF7E4FA40B1A06B036D03B0BDE8304001
:1030C8001847204600F02CFE03B030BD00F028FE63
:1030D8002564F9E7206B012840F09180D50640F17E
:1030E8008E80C80640F18B80002201921A680192F6
:1030F8005A680192019A5A6955064CD5A16B0A681B
:10310800526892B2002ADFD0A08D9042DCD9E285C5
:10311800CA69B2F5807F36D003F10C0252E8002F5D
:1031280022F4807203F10C0040E800210029F3D159
:1031380003F1140252E8002F22F0010203F11400F7
:1031480040E800210029F3D103F1140252E8002FCE
:1031580022F0400203F1140040E800210029F3D1D5
:10316800202284F83E20216303F10C0252E8002F4C
:1031780022F0100203F10C0040E800210029F3D1ED
:10318800A06BFEF737FAE38DA18DC91A89B22046E4
:10319800FFF7CCFE98E7E18D8AB2E18D89B200296C
:1031A80092D0A18D891A89B200298DD003F10C0221
:1031B80052E8002F22F4907203F10C0545E8002034
:1031C8000028F3D103F1140252E8002F22F0010283
:1031D80003F1140545E800200028F3D1202284F8E3
:1031E8003E20206303F10C0252E8002F22F0100267
:1031F80003F10C0545E800200028F3D1C7E71006C5
:1032080028D50D0626D594F83D20212A7FF45CAFF9
:10321800A168226AB1F5805F17D12169A9B932F88E
:10322800021BC1F3080159602262E28C013A92B292
:10323800E284002A7FF448AFDA6822F08002DA607C
:10324800DA6842F04002DA603EE7511C21621278E7
:103258005A60EAE750067FF537AF4A067FF534AF84
:10326800DA6822F04002DA60202384F83D302046F4
:1032780000F053FD28E700BF252F000890F83C30E8
:10328800012B11D00268242380F83D30D36823F045
:103298000C0343F00803D360202380F83D3000235B
:1032A80080F83C30184670470220704790F83C3050
:1032B800012B11D00268242380F83D30D36823F015
:1032C8000C0343F00403D360202380F83D3000232F
:1032D80080F83C30184670470220704790F83D202F
:1032E80090F83E0010437047C28500238285222251
:1032F800036480F83E20026980F83C3081620368EC
:103308001AB1DA6842F48072DA605A6942F001024E
:103318005A61DA6842F02002DA600020704770B41F
:1033280090F83E60202E10D161B15AB190F83C401F
:10333800012C0AD0012480F83C400024046370BCAE
:10334800FFF7D2BF012070BC70470220FBE70000E6
:1033580086B00023052853D8DFE800F003111E2BA0
:1033680038450093274B28481A6B42F001021A632C
:103378001B6B03F001030093009B06B07047019399
:10338800204B22481A6B42F002021A631B6B03F0AF
:1033980002030193019BF0E702931A4B1C481A6B36
:1033A80042F004021A631B6B03F004030293029BAE
:1033B800E3E70393134B17481A6B42F008021A63AA
:1033C8001B6B03F008030393039BD6E704930D4B91
:1033D80011481A6B42F010021A631B6B03F01003BA
:1033E8000493049BC9E70593064B0C481A6B42F0FB
:1033F80080021A631B6B03F080030593059BBCE7EF
:103408000020BAE7003802400000024000040240F1
:1034180000080240000C024000100240001C02405C
:10342800FEF742B8704708B5FEF732F8FEF7CDF858
:10343800FFF7F8FF08BD704784B0114B00220192D6
:10344800196C41F080511964196C01F08051019197
:1034580001990292596C41F480415964596C01F404
:1034680080410291029903921A6B42F480521A63C6
:103478001B6B03F480530393039B04B0704700BF96
:10348800003802400C4BD3F8FC20D2015EBFD3F8C1
:10349800FC2042F08072C3F8FC20084B00225A60DE
:1034A8001A6842F001021A6000BF00BF00BF5868E6
:1034B800B0FA80F04009704700ED00E0001000E02D
:1034C80008B5FFF7B9FFFFF7DDFFFDF7C7FFFFF707
:1034D800B2FF00F047FDBDE808400148FEF77AB8A2
:1034E800CC00002030B591FAA1F391FAA1F1B3FA1A
:1034F80083F3C4685B000325B1FA81F105FA03F38D
:10350800490024EA03038A401343C36030BD431CC7
:1035180004D00C3151F80C3C5A1C01D100207047E2
:10352800834201F10C01F5D101207047F8B5471C21
:1035380006460D4600D1FEE700F00F023D4BC0F3F2
:10354800031053F82240FFF703FF94FAA4F2B2FAEB
:1035580082F283680327520007FA02F223EA02077D
:1035680094FAA4F3B3FA83F3590003238B403B4343
:1035780005F007028360032A03D8DFE802F01D1D67
:10358800031DFEE73607C5F306213ED5230A93FA45
:10359800A3F6B6FA86F6476A93FAA3F3B6004FF095
:1035A8000F0CB3FA83F30CFA06F69B0027EA06061B
:1035B80001FA03F33343436294FAA4F1B1FA81F1B7
:1035C80003684900032606FA01F123EA010194FA87
:1035D800A4F3B3FA83F35B0002FA03F3013A0B4353
:1035E800012A036005D843682A074CBF2343A34335
:1035F8004360C5F30112012A02D0022A18BF002233
:103608002146BDE8F840FFF76DBF94FAA4F6B6FA74
:1036180086F6036AB6000F2707FA06F623EA0606B7
:1036280094FAA4F3B3FA83F39B0001FA03F3334348
:103638000362C1E798520008431C06D170478342D1
:1036480002D18968FFF772BF0C310B685A1CF6D19A
:10365800FEE70B685A1C01D100207047834201D154
:10366800486870470C31F4E7431C01D0FFF7F1BFFD
:10367800002070474B6813B94FF0FF307047834202
:1036880001D1086870470C31F4E708B1FFF7F2BFC1
:103698004FF0FF307047884204D018B100290CBFA2
:1036A80001460021084670471049D1F8883043F494
:1036B8007003C1F888300E4B1A6842F001021A6094
:1036C80000229A601A6822F0847222F480321A600A
:1036D800084A5A601A6822F480221A604FF43F029E
:1036E800DA604FF000638B60704700BF00ED00E0C8
:1036F80000380240103000240438704703683F4AFD
:10370800934288B01BD1002200923D4A516C41F08F
:1037180001015164526C02F001020092009A394A88
:1037280093423FD100230593354B5A6C42F48032C3
:103738005A645B6C03F480330593059B17E0B3F17F
:10374800804F16D0304A934220D0304A934239D025
:103758002F4A9342E3D100230493294B1A6C42F079
:1037680008021A641B6C03F008030493049B08B056
:10377800704700220192224A116C41F00101116444
:10378800126C02F001020192019AC8E7002202922B
:103798001B4A116C41F002011164126C02F0020222
:1037A8000292029A1B4A934218D100230693144BA3
:1037B8005A6C42F400325A645B6C03F4003306938B
:1037C800069BD4E7002203920D4A116C41F00401D4
:1037D8001164126C02F004020392039A0E4A934297
:1037E800C5D100230793064B5A6C42F480225A64D1
:1037F8005B6C03F480230793079BB8E70000014044
:103808000038024000400140000400400008004029
:10381800000C004000440140004801400368224A6F
:1038280093420DD121494A6C22F001024A64204A90
:10383800934222D11D4A536C23F48033536470475A
:10384800B3F1804F0ED01B4A934211D01A4A9342CB
:103858001BD01A4A9342EAD1144A136C23F0080386
:103868001364704711490A6C22F001020A64DEE70A
:103878000E490A6C22F002020A64114A934209D1E5
:103888000A4A536C23F40033D8E708490A6C22F03B
:1038980004020A640B4A934200D07047034A536CEF
:1038A80023F48023CAE700BF00000140003802402B
:1038B800004001400004004000080040000C0040A7
:1038C8000044014000480140431C21D0184B984255
:1038D80021D00BD8A3F5006398421ED003F580636E
:1038E80098421CD0B0F1804F1BD0FEE7114B984294
:1038F80019D008D8A3F58843984214D003F580431B
:10390800984212D0F1E70C4B9842EED11A2070473A
:103918006FF00D007047322070471D2070471E2041
:1039280070471C207047192070471820704700BF47
:10393800000C00400044014000480140431C21D0D5
:10394800194B984221D010D8A3F5784398421ED03D
:1039580007D8B0F1804F1CD0A3F5806398421AD0E5
:10396800FEE7124B984218D0FAE7114B984216D04E
:1039780003F58063984214D0A3F500639842EFD111
:10398800182070476FF00D0070471B2070471E20ED
:1039980070471C2070471D2070473220704719203F
:1039A80070471A20704700BF00000140000C00401B
:1039B8000044014038B5FFF7A1FE04460068FFF750
:1039C80083FFD4E91212FDF787FD2068FFF77CFF1B
:1039D800FDF7B4FD22681046FFF7B0FF0546104614
:1039E800FFF772FF85420BD02846D4E91212FDF783
:1039F80073FD2068FFF7A2FFBDE83840FDF79EBDC4
:103A080038BD00002DE9F04F87B004468A46006DA6
:103A18006549DDF840B098469146FFF725FE6349B1
:103A28000190606DFFF720FE61490646A06DFFF723
:103A38001BFE60490546E06DFFF716FE019B074631
:103A4800002B00F0AE80626D013202D0002E00F033
:103A5800A880A26D013202D0002D00F0A280E26D94
:103A6800013202D0002F00F09C8018463146FFF743
:103A780012FE29462060FFF70EFE39462060FFF748
:103A88000AFE2060002800F08C804B4B98424DD1F4
:103A980003F594335A6A42F010025A625A6A22F0C5
:103AA80010025A62002203925A6C42F010025A64C1
:103AB8005B6C03F010030393039B2523A4F8603089
:103AC8003949206DFFF7B8FD1EB13849606DFFF721
:103AD800B3FD2DB13649A06DFFF7AEFD4FF48075EB
:103AE8002FB13449E06D45F40075FFF7A5FD94F852
:103AF8006120324B94F96000C4F81480271D43F804
:103B0800227023680022C4E9013A0C23C4E9039B0C
:103B1800C4E9063522620121FDF7DEFC3846002E95
:103B28003AD107B0BDE8F04FFFF7A7B9244B984248
:103B380017D103F5FA331A6A42F400321A621A6A84
:103B480022F400321A62002204921A6C42F4003203
:103B58001A641B6C03F400330493049B4FF49373AF
:103B6800ACE7184B9842ABD103F592335A6A42F04E
:103B780020025A625A6A22F020025A6200220592F2
:103B88005A6C42F020025A645B6C03F020030593E0
:103B9800059B40F2472391E707B0BDE8F04FFFF7D8
:103BA8003EB907B0BDE8F08FC05500087855000849
:103BB800545500083055000800100140CC0400207E
:103BC800004400400014014010B418B15DF8044BE3
:103BD800FFF718BF5DF8044B7047000008B5074BA6
:103BE80090F8612053F82200FFF778FB00F02200DC
:103BF800A0F122035842584108BD00BFCC04002060
:103C080008B5074B90F8612053F82200FFF766FBD0
:103C180000F02100A0F121035842584108BD00BF1F
:103C2800CC04002070B50E46054610B94FF0FF30A1
:103C380070BDFFF7D3FF04460028F7D129460122BB
:103C480011F8623F337095F86100034B53F8200078
:103C5800FFF765FB2046EBE7CC04002038B50D469E
:103C68000446B8B1FFF7BAFFA0B994F96000A5649B
:103C7800FDF772FC94F86100074B04F1620153F8F8
:103C880020000122FFF74BFB94F96000BDE83840A3
:103C9800FDF754BC38BD00BFCC04002038B515462C
:103CA8000446B8B1C16490F96000FDF755FCA36EF5
:103CB800B4F8721094F8610013FA81F1064BAAB2B5
:103CC80053F82000FFF70BF994F96000BDE838407D
:103CD800FDF734BC38BD00BFCC04002048B1436DAB
:103CE800013306D190F86120024B53F82200FFF708
:103CF800C5BA7047CC04002048B1436D013306D1E2
:103D080090F86120024B53F82200FFF7CFBA7047B2
:103D1800CC040020436C04381847836C04381847D7
:103D28001FB503680446186810F0010013D000227C
:103D380000921A6800925B680093009B201FFFF7AF
:103D48004DFF40BB012204F15E01204604B0BDE8EE
:103D58001040FFF7E4BA196811F0020106D001908B
:103D68001A6801925B680193019BE7E71A6812F0F1
:103D7800040206D002911A6802925B680293029BC1
:103D8800DCE719680907D9D503921A6803925B68BA
:103D98000393039BD2E704B010BD000008B52520AB
:103DA800FDF702FC024B1868BDE80840FFF716B99A
:103DB800CC04002008B52620FDF7F6FB034B586815
:103DC80018B1BDE80840FFF709B908BDCC040020C8
:103DD80008B54720FDF7E8FB024B9868BDE80840A6
:103DE800FFF7FCB8CC04002073B51549154D0646FD
:103DF800FFF73AFCFDF7C8F955F82030044673B9C7
:103E08000F493046FFF730FC0190B020FDF7FCFA6F
:103E180001990646FDF756FA55F824301E6055F804
:103E280024301C684CB12046FDF7E4F9B021204647
:103E380002B0BDE87040FDF7E9BA02B070BD00BF3E
:103E480074530008A80400200023012803F101028C
:103E580002D040081346F8E71421DBB24B43044A6A
:103E6800181D1044816811B113441B691847704725
:103E7800D80400200120FDF717BC0220FDF714BC70
:103E88000420FDF711BC0820FDF70EBC1020FDF73B
:103E98000BBC38B505242025A8B2FDF705FC013C6C
:103EA8004FEA4505F8D138BD38B506244FF480658A
:103EB800A8B2FDF7F9FB013C4FEA4505F8D138BD3A
:103EC800204B07211975082183F82810092183F848
:103ED8003C100A21062283F8501017211A7083F823
:103EE8006410002283F8781083F88C1083F8A010EF
:103EF80083F8B4102821DA601A625A639A64DA6582
:103F08001A67C3F88420C3F89820C3F8AC20C3F814
:103F1800C02083F8C810C3F8D42083F8DC10C3F895
:103F2800E82083F8F010C3F8FC2083F80411C3F8E4
:103F3800102183F81811C3F8242183F82C11C3F831
:103F480038217047D804002038B5054CA4F5A07571
:103F5800143C201DFDF70FF9AC42F9D138BD00BF64
:103F68001806002010B594B0102200210AA800F00D
:103F78007FFC1422002103A800F07AFC1E4B0021CC
:103F880001911A6C42F080521A641B6C03F0805342
:103F98000193019B194B02911A6842F440421A603E
:103FA8001B6803F440430293029B01224FF48033C1
:103FB8000224CDE908234FF48003CDE90E431921EB
:103FC800C023CDE9101308A8042312941393FEF715
:103FD800DFFA00B1FEE70F23CDE903344FF4805335
:103FE800CDE906300590032103A8FEF7AFFC00B128
:103FF800FEE714B010BD00BF00380240007000405A
:10400800DFF834D00D480E490E4A002302E0D45898
:10401800C4500433C4188C42F9D30B4A0B4C002308
:1040280001E013600432A242FBD3FFF73DFB00F02E
:10403800DDFB00F0BBFB7047000002200000002001
:104048003C0100208C5800083C0100205407002047
:10405800FEE70000C0F30312052A10B503460ED888
:10406800084A0020D9B252F8044B8C4203D103F419
:10407800E063184310BD01302428F4D1FAE7242066
:10408800F8E700BF30560008B0F80431B0F8000176
:10409800181A00F03F007047B0F80431B0F800215A
:1040A8009BB293421ABFD0F8F830985C4FF0FF30BB
:1040B80070470000B0F80431B0F800119BB28B4291
:1040C80030B510D0094C0A4B65681B68094AB3FB28
:1040D800F2F3C3EB03136268521B9342FBDCD0F884
:1040E800F830585C30BD4FF0FF30FBE7001000E0BF
:1040F800D400002040420F0090F80231B0F80601C9
:10410800C0B2834227BFC3F13F03C018C01A00F1F1
:10411800FF30704707B503688DF807105B68012208
:104128000DF10701984703B05DF804FB13B50DF1D5
:1041380007010446FFF776FD90B9B4F87030B4F87B
:104148006C20013303F03F03934209D0B4F8702088
:10415800616E9DF8070092B29BB28854A4F8703043
:1041680002B010BD38B5426FB0F8723012FA83F35E
:1041780003F03F03A0F87230B0F87220B0F86E3048
:1041880092B293421BD0B0F87220B0F872400D4939
:1041980095B203F14002521B534203F03F03A4B20D
:1041A80002F03F0258BF5A42C4F140039A4228BF66
:1041B8001A464267FFF772FD4FF0FF3038BD002006
:1041C800FCE700BF6D41000803682DE9F0479B68D4
:1041D800044688461646984701232374D4F8E830E5
:1041E800B4F8029101338246C9F1400904F19407F9
:1041F80008D194F80C312BB1002384F80C313846DF
:10420800FFF76CFD236820469B6898470028F9D083
:1042180035464D4501D8554515D9D145236828BFA0
:10422800D1464A4641465B6820469847236820465F
:104238009B689847B4F80221A5EB0905C844824653
:10424800C2F14009E5E7B4F80221D4F8FC0053199B
:10425800402B104419D82A46414600F0FBFAA946DB
:10426800B4F802311D4405F03F05A4F80251384660
:10427800FFF7C6FC30B90C49C4F808914A463846DD
:10428800FFF70CFD3046BDE8F087C2F140094A4609
:10429800414600F0DFFAD4F8FC00A5EB090208EB70
:1042A800090100F0D7FADBE76D410008037C33B160
:1042B800B0F80221B0F806319BB29A42FAD17047A1
:1042C800C0F8EC30009BC0F8F030914208BF4FF0C6
:1042D800FF3100F11103C0E93921C0F8F83000F1CD
:1042E80051020023A0F80431C0E93F23A0F80631A9
:1042F8007047000073B54FF47A7316460022C0E980
:104308000123174B03604FF0FF33C0F8E830154B1B
:10431800984204460D4616D1134B9A6AC0F8E82015
:104328005B6AC0F8E430012E4FF0FF3308BFC4F8D1
:10433800E83000932046D4E939214FF0FF33FFF7E6
:10434800BFFF02B070BD09492846FFF79EF908492A
:10435800C4F8E8002846FFF798F9C4F8E400E2E753
:10436800D05600083006002030560008785500085E
:10437800C0550008D0F8E830013310B504460ED116
:104388000368DB68984794F80C3143B9012384F833
:104398000C3104F19400BDE81040FFF7ADBC10BD2E
:1043A80002F00703023BDBB2042B37B50546C0F821
:1043B800101180F80D219CBF1848C45C02F030032E
:1043C80088BF0024302B0DD101344FF4C06312F0A4
:1043D800080F14BF4FF400500020082C09D0092CF6
:1043E80018D0FEE712F020031CBF01344FF480639D
:1043F800EDE7002205F1940400902046FFF7E4FB66
:104408002846FFF7B7FF0649204603B0BDE830400D
:10441800FFF724BC4FF48052ECE700BFC0560008F9
:104428003541000810B50446FFF7A4FFB4F804218D
:10443800B4F8003192B29A421FBFD4F8F820D05C89
:10444800013303F03F0314BFA4F800314FF0FF30ED
:1044580010BD000038B50446FFF78CFFB4F80421FE
:10446800B4F8003192B29A4215D00C480C4A45680B
:1044780012680C49B2FBF1F2C2EB02124168491B07
:104488008A42FBDCD4F8F820D05C013303F03F0308
:10449800A4F8003138BD4FF0FF30FBE7001000E012
:1044A800D400002040420F00024903480022FFF7D1
:1044B80021BF00BF001001403006002013B504469C
:1044C800084659B10191FBF763FE236801995B68BF
:1044D8000246204602B0BDE81040184702B010BDA1
:1044E80008B5FFF7EBFF08BD03681B681847000015
:1044F80008B50249FFF7E2FF08BD00BFFC560008F7
:1045080038B50546FFF7DAFF04462846FFF7F0FFFF
:10451800204438BDFFF7F4BF30B58BB00023012A23
:104528008DF8243098BF0A2209AC0D46B1FBF2F190
:1045380001FB125303F0FF03092B94BF30333733C9
:10454800DBB2AA4204F8013DEFD92146FFF7B6FFD6
:104558000BB030BD2DE9F04107460E4614462AB986
:104568000368BDE8F0411B68C9B218470A2A05D19B
:10457800002905DBBDE8F041FFF7CEBFD2B2F9E76D
:104588002D21FFF7B1FF2246054671423846FFF755
:10459800C3FF2844BDE8F08138B50546FFF7DAFFC8
:1045A80004462846FFF7A4FF204438BD10B42AB9B2
:1045B80002685DF8044B1268C9B210475DF8044BF5
:1045C800D2B2FFF7A9BFFFF7F1BF38B50546FFF72D
:1045D800EDFF04462846FFF78BFF204438BD38B569
:1045E8000546FFF7E3FF04462846FFF781FF20440E
:1045F80038BD10B5044600F0E5F8E06023682046B1
:104608005B699847002808DA00F0DCF8E368C01A0C
:10461800A3689842F2D34FF0FF3010BD2DE9F04166
:1046280007460C468E180D46B542A5EB040807D080
:104638003846FFF7DEFF031E02DB05F8013BF3E710
:104648004046BDE8F0812DE9F04107468846164608
:104658001D4673B100243846FFF7CBFF031E05DB68
:10466800434503D033550134A542F4D12046BDE873
:10467800F0811C46FAE710B50446006800F0E2F83D
:10468800204610BD10B50446006808B100F0DAF8FD
:104698000023C4E90133236010BD38B504460D4634
:1046A8000068013100F0CCF910B1C4E9000501201F
:1046B80038BD036810B5044623B143688B4201D363
:1046C800012010BD2046FFF7E8FF0028F9D0A368B5
:1046D800002BF5D122681370F2E770B50E4611462B
:1046E80004461546FFF7E5FF20B92046FFF7CAFF45
:1046F800204670BD2068A560314600F0B9F9F7E79B
:10470800002313B5C0E900330446836041B108466D
:104718000191FBF73DFD019902462046FFF7DDFFB9
:10472800204602B010BD13B5044659B108460191A0
:10473800FBF72EFD019902462046FFF7CEFF2046E3
:1047480002B010BDFFF79EFFF9E770B505460E46AB
:1047580009B9002070BD6AB1846814442146FFF786
:10476800A8FF0028F5D02868AB683146184400F047
:104778007FF9AC600120EDE707B500238DF8041040
:10478800012201A98DF80530FFF7DFFF03B05DF8BE
:1047980004FB006808B100F025B8704708B503208D
:1047A800FCF788FEBDE8084000F00AB808B5AFF38A
:1047B8000080FBF7C5FEFCF7D7F800F005F8FAE72C
:1047C800FEF77EBEFEF72CBE08B5044B2BB104489D
:1047D800FFF75AFC08B1AFF3008008BD00000000E5
:1047E800300600200A22002100F0CCB970B50D4D2A
:1047F8000D4C641BA4100026A64209D10B4D0C4C8D
:1048080000F0CCFB641BA4100026A64205D170BDA5
:1048180055F8043B98470136EEE755F8043B9847AE
:104828000136F2E768580008685800086858000818
:1048380080580008024B0146186800F08DB800BF88
:10484800D8000020024B0146186800F019B800BFD4
:10485800D80000200A44914200F1FF3300D170478C
:1048680010B511F8014B03F8014F9142F9D110BD71
:1048780002440346934200D1704703F8011BF9E74D
:1048880037B5002944D051F8043C0190002BA1F120
:104898000404B8BFE41800F087F91E4A01981368A9
:1048A80033B96360146003B0BDE8304000F082B9EA
:1048B800A34208D9256861198B4201BF19685B6852
:1048C80049192160EDE71A465B680BB1A342FAD992
:1048D80011685518A5420BD1246821445418A342E5
:1048E8001160E0D11C685B68536021441160DAE70D
:1048F80002D90C230360D6E7256861198B4204BFEF
:1049080019685B68636004BF491921605460CAE78D
:1049180003B030BD4407002070B50E4E0C46316818
:10492800054611B900F094F830602146284600F099
:104938008FF8431C0AD0C41C24F00304A04207D0FB
:10494800211A284600F084F8013001D14FF0FF34D5
:10495800204670BD480700202DE9F041CD1C25F008
:10496800030508350C2D38BF0C25002D074601DB43
:10497800A94205D90C233B6000263046BDE8F081EA
:104988002E4E00F011F933681C4634BB29463846D0
:10499800FFF7C2FF431C04464DD134682646002E5B
:1049A80040D123683146384604EB030800F050F83C
:1049B80080453AD1216803356D1A25F0030508357D
:1049C8000C2D38BF0C2529463846FFF7A5FF0130C6
:1049D8002BD023682B4423600EE02268521B1ED480
:1049E8000B2A16D96119A342256018BF596063685C
:1049F80008BF316062514B60384604F10B0600F085
:104A0800D9F826F00706231DF21AB6D09B1BA3502F
:104A1800B3E76268A3420CBF32605A60ECE72346F2
:104A28006468B2E734467668B9E70C233B603846D9
:104A380000F0C0F8A1E72560DEE700BF44070020CA
:104A4800024B0A460146186800F0BAB8D8000020A0
:104A580038B5064D0023044608462B60FCF756FB84
:104A6800431C02D12B6803B1236038BD4C070020DA
:104A7800034611F8012B03F8012B002AF9D17047DE
:104A8800012B2DE9F04701D0242B06D900F084F83A
:104A9800162303600020BDE8F087DFF8E4C00D4668
:104AA8002E4615F8014B14F80C7017F00807F7D1CB
:104AB8002D2C32D12C780127B51C002B5BD0102B64
:104AC80009D1302C07D12C7804F0DF04582C4DD1B3
:104AD8006C781023023507F1004808F1FF384FF0D1
:104AE800000CB8FBF3F9664603FB198AA4F1300EF3
:104AF800BEF1090F16D87446A34224DDBCF1000F9D
:104B08001EDBB1451CD301D1A24519DB06FB0346C8
:104B18004FF0010C15F8014BE8E72B2C04BF2C785B
:104B2800B51CCAE7A4F1410EBEF1190F01D8373CF4
:104B3800E2E7A4F1610EBEF1190F04D8573CDBE798
:104B48004FF0FF3CE6E7BCF1000F05DA22230360D3
:104B5800464642B930469EE707B17642002AF9D068
:104B6800BCF1000F00D0691E1160F3E73024002B60
:104B7800B1D10823AFE7302CA5D00A23ABE700BF9B
:104B88000057000813460A46014602480068FFF726
:104B980077BF00BFD8000020014B1868704700BFDE
:104BA800D8000020704770470148FFF7FBBF00BFDF
:104BB800500700200148FFF7F6BF00BF500700204C
:104BC8002DE9F041804614460E4621B9BDE8F04172
:104BD8001146FFF7C1BE2AB9FFF752FE25462846FF
:104BE800BDE8F08100F01BF88442074602D8B4EB18
:104BF800500F12D821464046FFF7AEFE0546002862
:104C0800EDD0BC422246314628BF3A46FFF722FE85
:104C180031464046FFF734FEE1E73546DFE751F815
:104C2800043C181F002BBCBF0B58C018704708B5B0
:104C3800062000F02BF80120FCF786FA1F2938B56A
:104C480004460D4604D9162303604FF0FF3038BDE3
:104C5800426C12B152F821304BB9204600F030F8BE
:104C68002A4601462046BDE8384000F017B8012B17
:104C78000AD0591C03D1162303600120E7E700245A
:104C880042F82540284698470020E0E7024B0146B5
:104C98001868FFF7D3BF00BFD800002038B5074D0C
:104CA80000230446084611462B60FCF74FFA431CC4
:104CB80002D12B6803B1236038BD00BF4C07002028
:104CC800FCF74CBA2DE9F047089D04468E46002BA8
:104CD8004DD18A42944669D9B2FA82F252B101FAA8
:104CE80002F3C2F1200120FA01F10CFA02FC41EAB8
:104CF800030E94404FEA1C48210CBEFBF8F61FFA3D
:104D08008CF708FB16E341EA034306FB07F19942D7
:104D18000AD91CEB030306F1FF3080F01F8199428A
:104D280040F21C81023E63445B1AA4B2B3FBF8F064
:104D380008FB103344EA034400FB07F7A7420AD9EB
:104D48001CEB040400F1FF3380F00A81A74240F213
:104D580007816444023840EA0640E41B00261DB17E
:104D6800D4400023C5E900433146BDE8F0878B42B3
:104D780009D9002D00F0EF800026C5E90001304672
:104D88003146BDE8F087B3FA83F6002E4AD18B424C
:104D980002D3824200F2F980841A61EB03030120F6
:104DA8009E46002DE0D0C5E9004EDDE702B9FFDEE2
:104DB800B2FA82F2002A40F09280A1EB0C014FEA8D
:104DC8001C471FFA8CFE0126200CB1FBF7F307FBEA
:104DD800131140EA01410EFB03F0884208D91CEB8D
:104DE800010103F1FF3802D2884200F2CB8043462A
:104DF800091AA4B2B1FBF7F007FB101144EA014409
:104E08000EFB00FEA64508D91CEB040400F1FF3197
:104E180002D2A64500F2BB800846A4EB0E0440EA85
:104E280003409CE7C6F12007B34022FA07FC4CEA8E
:104E3800030C20FA07F401FA06F31C43F9404FEA81
:104E48001C4900FA06F3B1FBF9F8200C1FFA8CFE96
:104E580009FB181140EA014108FB0EF0884202FAEA
:104E680006F20BD91CEB010108F1FF3A80F08880AB
:104E7800884240F28580A8F102086144091AA4B268
:104E8800B1FBF9F009FB101144EA014100FB0EFEE9
:104E98008E4508D91CEB010100F1FF346CD28E4518
:104EA8006AD90238614440EA0840A0FB0294A1EBA9
:104EB8000E01A142C846A64656D353D05DB1B3EB06
:104EC800080261EB0E0101FA07F722FA06F3F14036
:104ED8001F43C5E9007100263146BDE8F087C2F1DD
:104EE8002003D8400CFA02FC21FA03F39140014355
:104EF8004FEA1C471FFA8CFEB3FBF7F007FB10368E
:104F08000B0C43EA064300FB0EF69E4204FA02F439
:104F180008D91CEB030300F1FF382FD29E422DD98C
:104F2800023863449B1B89B2B3FBF7F607FB1633C1
:104F380041EA034106FB0EF38B4208D91CEB010141
:104F480006F1FF3816D28B4214D9023E6144C91AC1
:104F580046EA004638E72E46284605E70646E3E6D1
:104F68001846F8E64B45A9D2B9EB020864EB0C0EDB
:104F78000138A3E74646EAE7204694E74046D1E7EA
:104F8800D0467BE7023B614432E7304609E7644498
:104F9800023842E708B5FFF74AFE0000F8B500BF3F
:104FA800F8BC08BC9E467047F8B500BFF8BC08BC02
:044FB8009E4670475A
:104FBC001A1502000041A6B71A1602001135263741
:104FCC002000537072656164207365747570202EB7
:104FDC002E2E2E005370726561642073657475708B
:104FEC0020646F6E650043616C6962205461726568
:104FFC00202E2E2E2E0043616C6962205461726546
:10500C0020446F6E65210043616C696220456D70B0
:10501C0074792054616E6B202E2E2E2E0043616C01
:10502C00696220456D7074792054616E6B20446FF9
:10503C006E65210043616C69622032306B67202EF3
:10504C002E2E2E0043616C69622032306B67204437
:10505C006F6E6521007363616C65536574000000AD
:10506C00C1C081C1400101C3C003800241C201C65D
:10507C00C006800741C70005C1C581C4400401CCEE
:10508C00C00C800D41CD000FC1CF81CE400E000A67
:10509C00C1CA81CB400B01C9C009800841C801D8E5
:1050AC00C018801941D9001BC1DB81DA401A001EDF
:1050BC00C1DE81DF401F01DDC01D801C41DC0014FE
:1050CC00C1D481D5401501D7C017801641D601D265
:1050DC00C012801341D30011C1D181D0401001F016
:1050EC00C030803141F10033C1F381F240320036DF
:1050FC00C1F681F7403701F5C035803441F4003CEE
:10510C00C1FC81FD403D01FFC03F803E41FE01FAE4
:10511C00C03A803B41FB0039C1F981F84038002886
:10512C00C1E881E9402901EBC02B802A41EA01EE5C
:10513C00C02E802F41EF002DC1ED81EC402C01E4FD
:10514C00C024802541E50027C1E781E640260022E6
:10515C00C1E281E3402301E1C021802041E001A0B4
:10516C00C060806141A10063C1A381A2406200665E
:10517C00C1A681A7406701A5C065806441A4006CED
:10518C00C1AC81AD406D01AFC06F806E41AE01AA64
:10519C00C06A806B41AB0069C1A981A840680078E6
:1051AC00C1B881B9407901BBC07B807A41BA01BEDC
:1051BC00C07E807F41BF007DC1BD81BC407C01B4FD
:1051CC00C074807541B50077C1B781B64076007266
:1051DC00C1B281B3407301B1C071807041B0005055
:1051EC00C190819140510193C053805241920196DC
:1051FC00C056805741970055C19581944054019CED
:10520C00C05C805D419D005FC19F819E405E005AE5
:10521C00C19A819B405B0199C05980584198018883
:10522C00C04880494189004BC18B818A404A004E5D
:10523C00C18E818F404F018DC04D804C418C0044FC
:10524C00C184818540450187C047804641860182E3
:10525C00C042804341830041C181818040400000B5
:10526C000000000000000000C30B0008050C000843
:10527C00B50A0008550C0008B90A0008C10A000854
:10528C00DB0A0008254600084F4600080100000014
:10529C0002000000040000000800000010000000E4
:1052AC002000000040000000800000000001000011
:1052BC0000020000000400000008000000100000C4
:1052CC0000200000004000000080000000000000F2
:1052DC00000000000102030406070809000000009A
:1052EC000102030408000000005C00400A040000F6
:1052FC0016000000005400400A04000018000000D2
:10530C00005400400A0400001A000000005800403D
:10531C000A040000FFFFFFFF000000000000000077
:10532C0013000000005800400A090000140000009F
:10533C00005C00400A090000170000000054004007
:10534C000A04000019000000005400400A04000088
:10535C0019010000005800400A090000FFFFFFFF80
:10536C0000000000000000000000000000000040F1
:10537C001281000000010000000C004012820000AD
:10538C0001000000000000401201010001010000BA
:10539C00000C00401202010002000000000000405E
:1053AC001281010002010000000C00401282010079
:1053BC0002020000004001401283000003000000C4
:1053CC00000000401201020003010000000C00402C
:1053DC00120202000302000000400140120301000F
:1053EC0005000000000000401281000006000000D3
:1053FC000004004012820000070000000000014081
:10540C00128110000701000000040040120201008C
:10541C00080000000000014012810000090000009B
:10542C0000000140120101000A00000000000140D0
:10543C00128101000B00000000000140120102006B
:10544C000F0000000000004012810000100000005E
:10545C000000014012011100100100000004004086
:10546C0012820100110000000000014012811100A5
:10547C0011010000000400401202020013000000A1
:10548C000000004012010100140000000004004064
:10549C0012820000150000000004004012020100FE
:1054AC0016000000000800401282000017000000E7
:1054BC000008004012020100180000000008004023
:1054CC001282010018010000004401401283000008
:1054DC00190000000008004012020200190100002F
:1054EC0000480140128300001A0000000000004038
:1054FC00128101001D00000000000140128110000B
:10550C001E00000000000140120111001F000000ED
:10551C000000014012811100FFFFFFFF000000009E
:10552C0000000000000000000044004012070000D2
:10553C000B0000000010014012070000FFFFFFFFEE
:10554C0000000000000000000100000000440040CA
:10555C00120700000C0000000010014012070000B0
:10556C00FFFFFFFF00000000000000000300000030
:10557C0000440040120700000A0000000010014027
:10558C00120700000C00000000140140120800007B
:10559C00130000000010014012070000170000006B
:1055AC000010014012070000FFFFFFFF0000000089
:1055BC000000000002000000004400401207000040
:1055CC000900000000100140120700000B00000051
:1055DC0000140140120800000F00000000100140F0
:1055EC001207000016000000001001401207000016
:1055FC00FFFFFFFF000000000000000000000000A3
:10560C000100000002000000030000000400000084
:10561C00050000000600000007000000100000005C
:10562C00110000000000000001000000020000005A
:10563C00030000000400000005000000060000004C
:10564C000700000008000000090000000A0000002C
:10565C000B0000000C0000000D0000000E0000000C
:10566C000F000000100000001100000012000000EC
:10567C0013000000140000001500000016000000CC
:10568C001700000018000000190000001A000000AC
:10569C001C0000001D0000001E0000001F00000088
:1056AC002D0000002E0000002F0000005000000014
:1056BC005100000006000700080000000000000078
:1056CC00000000001D410008D14100080141000804
:1056DC00B5420008914000082D440008A140000884
:1056EC00254600084F460008BD4000085D440008F0
:1056FC000D0A0000202020202020202020282828EF
:10570C00282820202020202020202020202020207D
:10571C0020202020881010101010101010101010C5
:10572C0010101010040404040404040404041010E5
:10573C001010101010414141414141010101010182
:10574C00010101010101010101010101010101102E
:10575C001010101010424242424242020202020257
:10576C0002020202020202020202020202020210FF
:10577C0010101020000000000000000000000000CD
:10578C00000000000000000000000000000000000D
:10579C0000000000000000000000000000000000FD
:1057AC0000000000000000000000000000000000ED
:1057BC0000000000000000000000000000000000DD
:1057CC0000000000000000000000000000000000CD
:1057DC0000000000000000000000000000000000BD
:1057EC0000000000000000000000000000000000AD
:1057FC00000000000000000000000000000000009D
:10580C00000000000000000000000000000000008C
:10581C00000000000000000000000000000000007C
:10582C00000000000000000000000000000000006C
:10583C00000000000000000000000000000000005C
:10584C00000000000000000000000000000000004C
:04585C000000000048
:085860006CF4FF7F0100000061
:10586800A54700080102000879030008C50D0008D3
:08587800C93E0008B14400081C
:0C588000DD010008E1030008513F0008B2
:10588C00000000000000000000000000000000000C
:10589C0000000000000000000000000000000000FC
:1058AC0000000000000000000000000000000000EC
:1058BC0000000000000000000000000000000000DC
:1058CC0000000000000000000000000000000000CC
:1058DC00000000001A0102751F1A30441A02023F20
:1058EC00111230141A100276251E30401A110100C4
:1058FC000100004F1A132675601234221A202675E7
:10590C00601234221A14020010F1A6C719285A008A
:10591C008D28ED0DBE30993FD712F241CF66B53FC1
:10592C00C976BE9F1A2FDD3F5807002001000000EA
:10593C001000000000000240000402400008024079
:10594C00000C024000100240001C024000300240DB
:10595C00000000000024F400DC0000200000000027
:10596C0020580008405800080058000800000000AB
:10597C00000000000000000000000000000000001B
:10598C00000000000000000000000000000000000B
:10599C0000000000000000000000000000000000FB
:1059AC0000000000000000000000000000000000EB
:0C59BC00000000000000000000000000DF
:0400000508004009A6
:00000001FF
